{
  "contractName": "Color",
  "abi": [
    {
      "inputs": [],
      "stateMutability": "nonpayable",
      "type": "constructor"
    },
    {
      "anonymous": false,
      "inputs": [
        {
          "indexed": true,
          "internalType": "address",
          "name": "owner",
          "type": "address"
        },
        {
          "indexed": true,
          "internalType": "address",
          "name": "approved",
          "type": "address"
        },
        {
          "indexed": true,
          "internalType": "uint256",
          "name": "tokenId",
          "type": "uint256"
        }
      ],
      "name": "Approval",
      "type": "event"
    },
    {
      "anonymous": false,
      "inputs": [
        {
          "indexed": true,
          "internalType": "address",
          "name": "owner",
          "type": "address"
        },
        {
          "indexed": true,
          "internalType": "address",
          "name": "operator",
          "type": "address"
        },
        {
          "indexed": false,
          "internalType": "bool",
          "name": "approved",
          "type": "bool"
        }
      ],
      "name": "ApprovalForAll",
      "type": "event"
    },
    {
      "anonymous": false,
      "inputs": [
        {
          "indexed": true,
          "internalType": "address",
          "name": "from",
          "type": "address"
        },
        {
          "indexed": true,
          "internalType": "address",
          "name": "to",
          "type": "address"
        },
        {
          "indexed": true,
          "internalType": "uint256",
          "name": "tokenId",
          "type": "uint256"
        }
      ],
      "name": "Transfer",
      "type": "event"
    },
    {
      "inputs": [
        {
          "internalType": "address",
          "name": "to",
          "type": "address"
        },
        {
          "internalType": "uint256",
          "name": "tokenId",
          "type": "uint256"
        }
      ],
      "name": "approve",
      "outputs": [],
      "stateMutability": "nonpayable",
      "type": "function"
    },
    {
      "inputs": [
        {
          "internalType": "address",
          "name": "owner",
          "type": "address"
        }
      ],
      "name": "balanceOf",
      "outputs": [
        {
          "internalType": "uint256",
          "name": "",
          "type": "uint256"
        }
      ],
      "stateMutability": "view",
      "type": "function",
      "constant": true
    },
    {
      "inputs": [
        {
          "internalType": "uint256",
          "name": "",
          "type": "uint256"
        }
      ],
      "name": "colors",
      "outputs": [
        {
          "internalType": "string",
          "name": "",
          "type": "string"
        }
      ],
      "stateMutability": "view",
      "type": "function",
      "constant": true
    },
    {
      "inputs": [
        {
          "internalType": "uint256",
          "name": "tokenId",
          "type": "uint256"
        }
      ],
      "name": "getApproved",
      "outputs": [
        {
          "internalType": "address",
          "name": "",
          "type": "address"
        }
      ],
      "stateMutability": "view",
      "type": "function",
      "constant": true
    },
    {
      "inputs": [
        {
          "internalType": "address",
          "name": "owner",
          "type": "address"
        },
        {
          "internalType": "address",
          "name": "operator",
          "type": "address"
        }
      ],
      "name": "isApprovedForAll",
      "outputs": [
        {
          "internalType": "bool",
          "name": "",
          "type": "bool"
        }
      ],
      "stateMutability": "view",
      "type": "function",
      "constant": true
    },
    {
      "inputs": [],
      "name": "name",
      "outputs": [
        {
          "internalType": "string",
          "name": "",
          "type": "string"
        }
      ],
      "stateMutability": "view",
      "type": "function",
      "constant": true
    },
    {
      "inputs": [
        {
          "internalType": "uint256",
          "name": "tokenId",
          "type": "uint256"
        }
      ],
      "name": "ownerOf",
      "outputs": [
        {
          "internalType": "address",
          "name": "",
          "type": "address"
        }
      ],
      "stateMutability": "view",
      "type": "function",
      "constant": true
    },
    {
      "inputs": [
        {
          "internalType": "address",
          "name": "from",
          "type": "address"
        },
        {
          "internalType": "address",
          "name": "to",
          "type": "address"
        },
        {
          "internalType": "uint256",
          "name": "tokenId",
          "type": "uint256"
        }
      ],
      "name": "safeTransferFrom",
      "outputs": [],
      "stateMutability": "nonpayable",
      "type": "function"
    },
    {
      "inputs": [
        {
          "internalType": "address",
          "name": "from",
          "type": "address"
        },
        {
          "internalType": "address",
          "name": "to",
          "type": "address"
        },
        {
          "internalType": "uint256",
          "name": "tokenId",
          "type": "uint256"
        },
        {
          "internalType": "bytes",
          "name": "_data",
          "type": "bytes"
        }
      ],
      "name": "safeTransferFrom",
      "outputs": [],
      "stateMutability": "nonpayable",
      "type": "function"
    },
    {
      "inputs": [
        {
          "internalType": "address",
          "name": "operator",
          "type": "address"
        },
        {
          "internalType": "bool",
          "name": "approved",
          "type": "bool"
        }
      ],
      "name": "setApprovalForAll",
      "outputs": [],
      "stateMutability": "nonpayable",
      "type": "function"
    },
    {
      "inputs": [
        {
          "internalType": "bytes4",
          "name": "interfaceId",
          "type": "bytes4"
        }
      ],
      "name": "supportsInterface",
      "outputs": [
        {
          "internalType": "bool",
          "name": "",
          "type": "bool"
        }
      ],
      "stateMutability": "view",
      "type": "function",
      "constant": true
    },
    {
      "inputs": [],
      "name": "symbol",
      "outputs": [
        {
          "internalType": "string",
          "name": "",
          "type": "string"
        }
      ],
      "stateMutability": "view",
      "type": "function",
      "constant": true
    },
    {
      "inputs": [
        {
          "internalType": "uint256",
          "name": "index",
          "type": "uint256"
        }
      ],
      "name": "tokenByIndex",
      "outputs": [
        {
          "internalType": "uint256",
          "name": "",
          "type": "uint256"
        }
      ],
      "stateMutability": "view",
      "type": "function",
      "constant": true
    },
    {
      "inputs": [
        {
          "internalType": "address",
          "name": "owner",
          "type": "address"
        },
        {
          "internalType": "uint256",
          "name": "index",
          "type": "uint256"
        }
      ],
      "name": "tokenOfOwnerByIndex",
      "outputs": [
        {
          "internalType": "uint256",
          "name": "",
          "type": "uint256"
        }
      ],
      "stateMutability": "view",
      "type": "function",
      "constant": true
    },
    {
      "inputs": [
        {
          "internalType": "uint256",
          "name": "tokenId",
          "type": "uint256"
        }
      ],
      "name": "tokenURI",
      "outputs": [
        {
          "internalType": "string",
          "name": "",
          "type": "string"
        }
      ],
      "stateMutability": "view",
      "type": "function",
      "constant": true
    },
    {
      "inputs": [
        {
          "internalType": "address",
          "name": "from",
          "type": "address"
        },
        {
          "internalType": "address",
          "name": "to",
          "type": "address"
        },
        {
          "internalType": "uint256",
          "name": "tokenId",
          "type": "uint256"
        }
      ],
      "name": "transferFrom",
      "outputs": [],
      "stateMutability": "nonpayable",
      "type": "function"
    },
    {
      "inputs": [
        {
          "internalType": "string",
          "name": "_color",
          "type": "string"
        }
      ],
      "name": "mint",
      "outputs": [],
      "stateMutability": "nonpayable",
      "type": "function"
    },
    {
      "inputs": [],
      "name": "totalSupply",
      "outputs": [
        {
          "internalType": "uint256",
          "name": "",
          "type": "uint256"
        }
      ],
      "stateMutability": "view",
      "type": "function",
      "constant": true
    }
  ],
  "bytecode": "0x60806040523480156200001157600080fd5b506040518060400160405280600581526020017f436f6c6f720000000000000000000000000000000000000000000000000000008152506040518060400160405280600581526020017f434f4c4f52000000000000000000000000000000000000000000000000000000815250816000908051906020019062000096929190620000b8565b508060019080519060200190620000af929190620000b8565b505050620001cd565b828054620000c69062000168565b90600052602060002090601f016020900481019282620000ea576000855562000136565b82601f106200010557805160ff191683800117855562000136565b8280016001018555821562000136579182015b828111156200013557825182559160200191906001019062000118565b5b50905062000145919062000149565b5090565b5b80821115620001645760008160009055506001016200014a565b5090565b600060028204905060018216806200018157607f821691505b602082108114156200019857620001976200019e565b5b50919050565b7f4e487b7100000000000000000000000000000000000000000000000000000000600052602260045260246000fd5b6131ab80620001dd6000396000f3fe608060405234801561001057600080fd5b50600436106101165760003560e01c80636352211e116100a2578063b88d4fde11610071578063b88d4fde14610305578063bd11f69d14610321578063c87b56dd14610351578063d85d3d2714610381578063e985e9c51461039d57610116565b80636352211e1461026b57806370a082311461029b57806395d89b41146102cb578063a22cb465146102e957610116565b806318160ddd116100e957806318160ddd146101b557806323b872dd146101d35780632f745c59146101ef57806342842e0e1461021f5780634f6ccce71461023b57610116565b806301ffc9a71461011b57806306fdde031461014b578063081812fc14610169578063095ea7b314610199575b600080fd5b6101356004803603810190610130919061217a565b6103cd565b60405161014291906125ec565b60405180910390f35b610153610447565b6040516101609190612607565b60405180910390f35b610183600480360381019061017e919061221d565b6104d9565b6040516101909190612585565b60405180910390f35b6101b360048036038101906101ae919061213a565b61055e565b005b6101bd610676565b6040516101ca9190612829565b60405180910390f35b6101ed60048036038101906101e89190612024565b610683565b005b6102096004803603810190610204919061213a565b6106e3565b6040516102169190612829565b60405180910390f35b61023960048036038101906102349190612024565b610788565b005b6102556004803603810190610250919061221d565b6107a8565b6040516102629190612829565b60405180910390f35b6102856004803603810190610280919061221d565b610819565b6040516102929190612585565b60405180910390f35b6102b560048036038101906102b09190611fb7565b6108cb565b6040516102c29190612829565b60405180910390f35b6102d3610983565b6040516102e09190612607565b60405180910390f35b61030360048036038101906102fe91906120fa565b610a15565b005b61031f600480360381019061031a9190612077565b610b96565b005b61033b6004803603810190610336919061221d565b610bf8565b6040516103489190612607565b60405180910390f35b61036b6004803603810190610366919061221d565b610ca4565b6040516103789190612607565b60405180910390f35b61039b600480360381019061039691906121d4565b610d4b565b005b6103b760048036038101906103b29190611fe4565b610e0c565b6040516103c491906125ec565b60405180910390f35b60007f780e9d63000000000000000000000000000000000000000000000000000000007bffffffffffffffffffffffffffffffffffffffffffffffffffffffff1916827bffffffffffffffffffffffffffffffffffffffffffffffffffffffff19161480610440575061043f82610ea0565b5b9050919050565b60606000805461045690612a7f565b80601f016020809104026020016040519081016040528092919081815260200182805461048290612a7f565b80156104cf5780601f106104a4576101008083540402835291602001916104cf565b820191906000526020600020905b8154815290600101906020018083116104b257829003601f168201915b5050505050905090565b60006104e482610f82565b610523576040517f08c379a000000000000000000000000000000000000000000000000000000000815260040161051a90612769565b60405180910390fd5b6004600083815260200190815260200160002060009054906101000a900473ffffffffffffffffffffffffffffffffffffffff169050919050565b600061056982610819565b90508073ffffffffffffffffffffffffffffffffffffffff168373ffffffffffffffffffffffffffffffffffffffff1614156105da576040517f08c379a00000000000000000000000000000000000000000000000000000000081526004016105d1906127c9565b60405180910390fd5b8073ffffffffffffffffffffffffffffffffffffffff166105f9610fee565b73ffffffffffffffffffffffffffffffffffffffff161480610628575061062781610622610fee565b610e0c565b5b610667576040517f08c379a000000000000000000000000000000000000000000000000000000000815260040161065e906126e9565b60405180910390fd5b6106718383610ff6565b505050565b6000600a80549050905090565b61069461068e610fee565b826110af565b6106d3576040517f08c379a00000000000000000000000000000000000000000000000000000000081526004016106ca906127e9565b60405180910390fd5b6106de83838361118d565b505050565b60006106ee836108cb565b821061072f576040517f08c379a000000000000000000000000000000000000000000000000000000000815260040161072690612629565b60405180910390fd5b600660008473ffffffffffffffffffffffffffffffffffffffff1673ffffffffffffffffffffffffffffffffffffffff168152602001908152602001600020600083815260200190815260200160002054905092915050565b6107a383838360405180602001604052806000815250610b96565b505050565b60006107b26113e9565b82106107f3576040517f08c379a00000000000000000000000000000000000000000000000000000000081526004016107ea90612809565b60405180910390fd5b6008828154811061080757610806612c18565b5b90600052602060002001549050919050565b6000806002600084815260200190815260200160002060009054906101000a900473ffffffffffffffffffffffffffffffffffffffff169050600073ffffffffffffffffffffffffffffffffffffffff168173ffffffffffffffffffffffffffffffffffffffff1614156108c2576040517f08c379a00000000000000000000000000000000000000000000000000000000081526004016108b990612729565b60405180910390fd5b80915050919050565b60008073ffffffffffffffffffffffffffffffffffffffff168273ffffffffffffffffffffffffffffffffffffffff16141561093c576040517f08c379a000000000000000000000000000000000000000000000000000000000815260040161093390612709565b60405180910390fd5b600360008373ffffffffffffffffffffffffffffffffffffffff1673ffffffffffffffffffffffffffffffffffffffff168152602001908152602001600020549050919050565b60606001805461099290612a7f565b80601f01602080910402602001604051908101604052809291908181526020018280546109be90612a7f565b8015610a0b5780601f106109e057610100808354040283529160200191610a0b565b820191906000526020600020905b8154815290600101906020018083116109ee57829003601f168201915b5050505050905090565b610a1d610fee565b73ffffffffffffffffffffffffffffffffffffffff168273ffffffffffffffffffffffffffffffffffffffff161415610a8b576040517f08c379a0000000000000000000000000000000000000000000000000000000008152600401610a82906126a9565b60405180910390fd5b8060056000610a98610fee565b73ffffffffffffffffffffffffffffffffffffffff1673ffffffffffffffffffffffffffffffffffffffff16815260200190815260200160002060008473ffffffffffffffffffffffffffffffffffffffff1673ffffffffffffffffffffffffffffffffffffffff16815260200190815260200160002060006101000a81548160ff0219169083151502179055508173ffffffffffffffffffffffffffffffffffffffff16610b45610fee565b73ffffffffffffffffffffffffffffffffffffffff167f17307eab39ab6107e8899845ad3d59bd9653f200f220920489ca2b5937696c3183604051610b8a91906125ec565b60405180910390a35050565b610ba7610ba1610fee565b836110af565b610be6576040517f08c379a0000000000000000000000000000000000000000000000000000000008152600401610bdd906127e9565b60405180910390fd5b610bf2848484846113f6565b50505050565b600a8181548110610c0857600080fd5b906000526020600020016000915090508054610c2390612a7f565b80601f0160208091040260200160405190810160405280929190818152602001828054610c4f90612a7f565b8015610c9c5780601f10610c7157610100808354040283529160200191610c9c565b820191906000526020600020905b815481529060010190602001808311610c7f57829003601f168201915b505050505081565b6060610caf82610f82565b610cee576040517f08c379a0000000000000000000000000000000000000000000000000000000008152600401610ce5906127a9565b60405180910390fd5b6000610cf8611452565b90506000815111610d185760405180602001604052806000815250610d43565b80610d2284611469565b604051602001610d33929190612561565b6040516020818303038152906040525b915050919050565b600b81604051610d5b919061254a565b908152602001604051809103902060009054906101000a900460ff1615610d8157600080fd5b600a81908060018154018082558091505060019003906000526020600020016000909190919091509080519060200190610dbc929190611dcb565b506000600a805490509050610dd133826115ca565b6001600b83604051610de3919061254a565b908152602001604051809103902060006101000a81548160ff0219169083151502179055505050565b6000600560008473ffffffffffffffffffffffffffffffffffffffff1673ffffffffffffffffffffffffffffffffffffffff16815260200190815260200160002060008373ffffffffffffffffffffffffffffffffffffffff1673ffffffffffffffffffffffffffffffffffffffff16815260200190815260200160002060009054906101000a900460ff16905092915050565b60007f80ac58cd000000000000000000000000000000000000000000000000000000007bffffffffffffffffffffffffffffffffffffffffffffffffffffffff1916827bffffffffffffffffffffffffffffffffffffffffffffffffffffffff19161480610f6b57507f5b5e139f000000000000000000000000000000000000000000000000000000007bffffffffffffffffffffffffffffffffffffffffffffffffffffffff1916827bffffffffffffffffffffffffffffffffffffffffffffffffffffffff1916145b80610f7b5750610f7a82611798565b5b9050919050565b60008073ffffffffffffffffffffffffffffffffffffffff166002600084815260200190815260200160002060009054906101000a900473ffffffffffffffffffffffffffffffffffffffff1673ffffffffffffffffffffffffffffffffffffffff1614159050919050565b600033905090565b816004600083815260200190815260200160002060006101000a81548173ffffffffffffffffffffffffffffffffffffffff021916908373ffffffffffffffffffffffffffffffffffffffff160217905550808273ffffffffffffffffffffffffffffffffffffffff1661106983610819565b73ffffffffffffffffffffffffffffffffffffffff167f8c5be1e5ebec7d5bd14f71427d1e84f3dd0314c0f7b2291e5b200ac8c7c3b92560405160405180910390a45050565b60006110ba82610f82565b6110f9576040517f08c379a00000000000000000000000000000000000000000000000000000000081526004016110f0906126c9565b60405180910390fd5b600061110483610819565b90508073ffffffffffffffffffffffffffffffffffffffff168473ffffffffffffffffffffffffffffffffffffffff16148061117357508373ffffffffffffffffffffffffffffffffffffffff1661115b846104d9565b73ffffffffffffffffffffffffffffffffffffffff16145b8061118457506111838185610e0c565b5b91505092915050565b8273ffffffffffffffffffffffffffffffffffffffff166111ad82610819565b73ffffffffffffffffffffffffffffffffffffffff1614611203576040517f08c379a00000000000000000000000000000000000000000000000000000000081526004016111fa90612789565b60405180910390fd5b600073ffffffffffffffffffffffffffffffffffffffff168273ffffffffffffffffffffffffffffffffffffffff161415611273576040517f08c379a000000000000000000000000000000000000000000000000000000000815260040161126a90612689565b60405180910390fd5b61127e838383611802565b611289600082610ff6565b6001600360008573ffffffffffffffffffffffffffffffffffffffff1673ffffffffffffffffffffffffffffffffffffffff16815260200190815260200160002060008282546112d99190612995565b925050819055506001600360008473ffffffffffffffffffffffffffffffffffffffff1673ffffffffffffffffffffffffffffffffffffffff1681526020019081526020016000206000828254611330919061290e565b92505081905550816002600083815260200190815260200160002060006101000a81548173ffffffffffffffffffffffffffffffffffffffff021916908373ffffffffffffffffffffffffffffffffffffffff160217905550808273ffffffffffffffffffffffffffffffffffffffff168473ffffffffffffffffffffffffffffffffffffffff167fddf252ad1be2c89b69c2b068fc378daa952ba7f163c4a11628f55a4df523b3ef60405160405180910390a4505050565b6000600880549050905090565b61140184848461118d565b61140d84848484611916565b61144c576040517f08c379a000000000000000000000000000000000000000000000000000000000815260040161144390612649565b60405180910390fd5b50505050565b606060405180602001604052806000815250905090565b606060008214156114b1576040518060400160405280600181526020017f300000000000000000000000000000000000000000000000000000000000000081525090506115c5565b600082905060005b600082146114e35780806114cc90612ae2565b915050600a826114dc9190612964565b91506114b9565b60008167ffffffffffffffff8111156114ff576114fe612c47565b5b6040519080825280601f01601f1916602001820160405280156115315781602001600182028036833780820191505090505b5090505b600085146115be5760018261154a9190612995565b9150600a856115599190612b2b565b6030611565919061290e565b60f81b81838151811061157b5761157a612c18565b5b60200101907effffffffffffffffffffffffffffffffffffffffffffffffffffffffffffff1916908160001a905350600a856115b79190612964565b9450611535565b8093505050505b919050565b600073ffffffffffffffffffffffffffffffffffffffff168273ffffffffffffffffffffffffffffffffffffffff16141561163a576040517f08c379a000000000000000000000000000000000000000000000000000000000815260040161163190612749565b60405180910390fd5b61164381610f82565b15611683576040517f08c379a000000000000000000000000000000000000000000000000000000000815260040161167a90612669565b60405180910390fd5b61168f60008383611802565b6001600360008473ffffffffffffffffffffffffffffffffffffffff1673ffffffffffffffffffffffffffffffffffffffff16815260200190815260200160002060008282546116df919061290e565b92505081905550816002600083815260200190815260200160002060006101000a81548173ffffffffffffffffffffffffffffffffffffffff021916908373ffffffffffffffffffffffffffffffffffffffff160217905550808273ffffffffffffffffffffffffffffffffffffffff16600073ffffffffffffffffffffffffffffffffffffffff167fddf252ad1be2c89b69c2b068fc378daa952ba7f163c4a11628f55a4df523b3ef60405160405180910390a45050565b60007f01ffc9a7000000000000000000000000000000000000000000000000000000007bffffffffffffffffffffffffffffffffffffffffffffffffffffffff1916827bffffffffffffffffffffffffffffffffffffffffffffffffffffffff1916149050919050565b61180d838383611aad565b600073ffffffffffffffffffffffffffffffffffffffff168373ffffffffffffffffffffffffffffffffffffffff1614156118505761184b81611ab2565b61188f565b8173ffffffffffffffffffffffffffffffffffffffff168373ffffffffffffffffffffffffffffffffffffffff161461188e5761188d8382611afb565b5b5b600073ffffffffffffffffffffffffffffffffffffffff168273ffffffffffffffffffffffffffffffffffffffff1614156118d2576118cd81611c68565b611911565b8273ffffffffffffffffffffffffffffffffffffffff168273ffffffffffffffffffffffffffffffffffffffff16146119105761190f8282611d39565b5b5b505050565b60006119378473ffffffffffffffffffffffffffffffffffffffff16611db8565b15611aa0578373ffffffffffffffffffffffffffffffffffffffff1663150b7a02611960610fee565b8786866040518563ffffffff1660e01b815260040161198294939291906125a0565b602060405180830381600087803b15801561199c57600080fd5b505af19250505080156119cd57506040513d601f19601f820116820180604052508101906119ca91906121a7565b60015b611a50573d80600081146119fd576040519150601f19603f3d011682016040523d82523d6000602084013e611a02565b606091505b50600081511415611a48576040517f08c379a0000000000000000000000000000000000000000000000000000000008152600401611a3f90612649565b60405180910390fd5b805181602001fd5b63150b7a0260e01b7bffffffffffffffffffffffffffffffffffffffffffffffffffffffff1916817bffffffffffffffffffffffffffffffffffffffffffffffffffffffff191614915050611aa5565b600190505b949350505050565b505050565b6008805490506009600083815260200190815260200160002081905550600881908060018154018082558091505060019003906000526020600020016000909190919091505550565b60006001611b08846108cb565b611b129190612995565b9050600060076000848152602001908152602001600020549050818114611bf7576000600660008673ffffffffffffffffffffffffffffffffffffffff1673ffffffffffffffffffffffffffffffffffffffff168152602001908152602001600020600084815260200190815260200160002054905080600660008773ffffffffffffffffffffffffffffffffffffffff1673ffffffffffffffffffffffffffffffffffffffff168152602001908152602001600020600084815260200190815260200160002081905550816007600083815260200190815260200160002081905550505b6007600084815260200190815260200160002060009055600660008573ffffffffffffffffffffffffffffffffffffffff1673ffffffffffffffffffffffffffffffffffffffff16815260200190815260200160002060008381526020019081526020016000206000905550505050565b60006001600880549050611c7c9190612995565b9050600060096000848152602001908152602001600020549050600060088381548110611cac57611cab612c18565b5b906000526020600020015490508060088381548110611cce57611ccd612c18565b5b906000526020600020018190555081600960008381526020019081526020016000208190555060096000858152602001908152602001600020600090556008805480611d1d57611d1c612be9565b5b6001900381819060005260206000200160009055905550505050565b6000611d44836108cb565b905081600660008573ffffffffffffffffffffffffffffffffffffffff1673ffffffffffffffffffffffffffffffffffffffff168152602001908152602001600020600083815260200190815260200160002081905550806007600084815260200190815260200160002081905550505050565b600080823b905060008111915050919050565b828054611dd790612a7f565b90600052602060002090601f016020900481019282611df95760008555611e40565b82601f10611e1257805160ff1916838001178555611e40565b82800160010185558215611e40579182015b82811115611e3f578251825591602001919060010190611e24565b5b509050611e4d9190611e51565b5090565b5b80821115611e6a576000816000905550600101611e52565b5090565b6000611e81611e7c84612869565b612844565b905082815260208101848484011115611e9d57611e9c612c7b565b5b611ea8848285612a3d565b509392505050565b6000611ec3611ebe8461289a565b612844565b905082815260208101848484011115611edf57611ede612c7b565b5b611eea848285612a3d565b509392505050565b600081359050611f0181613119565b92915050565b600081359050611f1681613130565b92915050565b600081359050611f2b81613147565b92915050565b600081519050611f4081613147565b92915050565b600082601f830112611f5b57611f5a612c76565b5b8135611f6b848260208601611e6e565b91505092915050565b600082601f830112611f8957611f88612c76565b5b8135611f99848260208601611eb0565b91505092915050565b600081359050611fb18161315e565b92915050565b600060208284031215611fcd57611fcc612c85565b5b6000611fdb84828501611ef2565b91505092915050565b60008060408385031215611ffb57611ffa612c85565b5b600061200985828601611ef2565b925050602061201a85828601611ef2565b9150509250929050565b60008060006060848603121561203d5761203c612c85565b5b600061204b86828701611ef2565b935050602061205c86828701611ef2565b925050604061206d86828701611fa2565b9150509250925092565b6000806000806080858703121561209157612090612c85565b5b600061209f87828801611ef2565b94505060206120b087828801611ef2565b93505060406120c187828801611fa2565b925050606085013567ffffffffffffffff8111156120e2576120e1612c80565b5b6120ee87828801611f46565b91505092959194509250565b6000806040838503121561211157612110612c85565b5b600061211f85828601611ef2565b925050602061213085828601611f07565b9150509250929050565b6000806040838503121561215157612150612c85565b5b600061215f85828601611ef2565b925050602061217085828601611fa2565b9150509250929050565b6000602082840312156121905761218f612c85565b5b600061219e84828501611f1c565b91505092915050565b6000602082840312156121bd576121bc612c85565b5b60006121cb84828501611f31565b91505092915050565b6000602082840312156121ea576121e9612c85565b5b600082013567ffffffffffffffff81111561220857612207612c80565b5b61221484828501611f74565b91505092915050565b60006020828403121561223357612232612c85565b5b600061224184828501611fa2565b91505092915050565b612253816129c9565b82525050565b612262816129db565b82525050565b6000612273826128cb565b61227d81856128e1565b935061228d818560208601612a4c565b61229681612c8a565b840191505092915050565b60006122ac826128d6565b6122b681856128f2565b93506122c6818560208601612a4c565b6122cf81612c8a565b840191505092915050565b60006122e5826128d6565b6122ef8185612903565b93506122ff818560208601612a4c565b80840191505092915050565b6000612318602b836128f2565b915061232382612c9b565b604082019050919050565b600061233b6032836128f2565b915061234682612cea565b604082019050919050565b600061235e601c836128f2565b915061236982612d39565b602082019050919050565b60006123816024836128f2565b915061238c82612d62565b604082019050919050565b60006123a46019836128f2565b91506123af82612db1565b602082019050919050565b60006123c7602c836128f2565b91506123d282612dda565b604082019050919050565b60006123ea6038836128f2565b91506123f582612e29565b604082019050919050565b600061240d602a836128f2565b915061241882612e78565b604082019050919050565b60006124306029836128f2565b915061243b82612ec7565b604082019050919050565b60006124536020836128f2565b915061245e82612f16565b602082019050919050565b6000612476602c836128f2565b915061248182612f3f565b604082019050919050565b60006124996029836128f2565b91506124a482612f8e565b604082019050919050565b60006124bc602f836128f2565b91506124c782612fdd565b604082019050919050565b60006124df6021836128f2565b91506124ea8261302c565b604082019050919050565b60006125026031836128f2565b915061250d8261307b565b604082019050919050565b6000612525602c836128f2565b9150612530826130ca565b604082019050919050565b61254481612a33565b82525050565b600061255682846122da565b915081905092915050565b600061256d82856122da565b915061257982846122da565b91508190509392505050565b600060208201905061259a600083018461224a565b92915050565b60006080820190506125b5600083018761224a565b6125c2602083018661224a565b6125cf604083018561253b565b81810360608301526125e18184612268565b905095945050505050565b60006020820190506126016000830184612259565b92915050565b6000602082019050818103600083015261262181846122a1565b905092915050565b600060208201905081810360008301526126428161230b565b9050919050565b600060208201905081810360008301526126628161232e565b9050919050565b6000602082019050818103600083015261268281612351565b9050919050565b600060208201905081810360008301526126a281612374565b9050919050565b600060208201905081810360008301526126c281612397565b9050919050565b600060208201905081810360008301526126e2816123ba565b9050919050565b60006020820190508181036000830152612702816123dd565b9050919050565b6000602082019050818103600083015261272281612400565b9050919050565b6000602082019050818103600083015261274281612423565b9050919050565b6000602082019050818103600083015261276281612446565b9050919050565b6000602082019050818103600083015261278281612469565b9050919050565b600060208201905081810360008301526127a28161248c565b9050919050565b600060208201905081810360008301526127c2816124af565b9050919050565b600060208201905081810360008301526127e2816124d2565b9050919050565b60006020820190508181036000830152612802816124f5565b9050919050565b6000602082019050818103600083015261282281612518565b9050919050565b600060208201905061283e600083018461253b565b92915050565b600061284e61285f565b905061285a8282612ab1565b919050565b6000604051905090565b600067ffffffffffffffff82111561288457612883612c47565b5b61288d82612c8a565b9050602081019050919050565b600067ffffffffffffffff8211156128b5576128b4612c47565b5b6128be82612c8a565b9050602081019050919050565b600081519050919050565b600081519050919050565b600082825260208201905092915050565b600082825260208201905092915050565b600081905092915050565b600061291982612a33565b915061292483612a33565b9250827fffffffffffffffffffffffffffffffffffffffffffffffffffffffffffffffff0382111561295957612958612b5c565b5b828201905092915050565b600061296f82612a33565b915061297a83612a33565b92508261298a57612989612b8b565b5b828204905092915050565b60006129a082612a33565b91506129ab83612a33565b9250828210156129be576129bd612b5c565b5b828203905092915050565b60006129d482612a13565b9050919050565b60008115159050919050565b60007fffffffff0000000000000000000000000000000000000000000000000000000082169050919050565b600073ffffffffffffffffffffffffffffffffffffffff82169050919050565b6000819050919050565b82818337600083830152505050565b60005b83811015612a6a578082015181840152602081019050612a4f565b83811115612a79576000848401525b50505050565b60006002820490506001821680612a9757607f821691505b60208210811415612aab57612aaa612bba565b5b50919050565b612aba82612c8a565b810181811067ffffffffffffffff82111715612ad957612ad8612c47565b5b80604052505050565b6000612aed82612a33565b91507fffffffffffffffffffffffffffffffffffffffffffffffffffffffffffffffff821415612b2057612b1f612b5c565b5b600182019050919050565b6000612b3682612a33565b9150612b4183612a33565b925082612b5157612b50612b8b565b5b828206905092915050565b7f4e487b7100000000000000000000000000000000000000000000000000000000600052601160045260246000fd5b7f4e487b7100000000000000000000000000000000000000000000000000000000600052601260045260246000fd5b7f4e487b7100000000000000000000000000000000000000000000000000000000600052602260045260246000fd5b7f4e487b7100000000000000000000000000000000000000000000000000000000600052603160045260246000fd5b7f4e487b7100000000000000000000000000000000000000000000000000000000600052603260045260246000fd5b7f4e487b7100000000000000000000000000000000000000000000000000000000600052604160045260246000fd5b600080fd5b600080fd5b600080fd5b600080fd5b6000601f19601f8301169050919050565b7f455243373231456e756d657261626c653a206f776e657220696e646578206f7560008201527f74206f6620626f756e6473000000000000000000000000000000000000000000602082015250565b7f4552433732313a207472616e7366657220746f206e6f6e20455243373231526560008201527f63656976657220696d706c656d656e7465720000000000000000000000000000602082015250565b7f4552433732313a20746f6b656e20616c7265616479206d696e74656400000000600082015250565b7f4552433732313a207472616e7366657220746f20746865207a65726f2061646460008201527f7265737300000000000000000000000000000000000000000000000000000000602082015250565b7f4552433732313a20617070726f766520746f2063616c6c657200000000000000600082015250565b7f4552433732313a206f70657261746f7220717565727920666f72206e6f6e657860008201527f697374656e7420746f6b656e0000000000000000000000000000000000000000602082015250565b7f4552433732313a20617070726f76652063616c6c6572206973206e6f74206f7760008201527f6e6572206e6f7220617070726f76656420666f7220616c6c0000000000000000602082015250565b7f4552433732313a2062616c616e636520717565727920666f7220746865207a6560008201527f726f206164647265737300000000000000000000000000000000000000000000602082015250565b7f4552433732313a206f776e657220717565727920666f72206e6f6e657869737460008201527f656e7420746f6b656e0000000000000000000000000000000000000000000000602082015250565b7f4552433732313a206d696e7420746f20746865207a65726f2061646472657373600082015250565b7f4552433732313a20617070726f76656420717565727920666f72206e6f6e657860008201527f697374656e7420746f6b656e0000000000000000000000000000000000000000602082015250565b7f4552433732313a207472616e73666572206f6620746f6b656e2074686174206960008201527f73206e6f74206f776e0000000000000000000000000000000000000000000000602082015250565b7f4552433732314d657461646174613a2055524920717565727920666f72206e6f60008201527f6e6578697374656e7420746f6b656e0000000000000000000000000000000000602082015250565b7f4552433732313a20617070726f76616c20746f2063757272656e74206f776e6560008201527f7200000000000000000000000000000000000000000000000000000000000000602082015250565b7f4552433732313a207472616e736665722063616c6c6572206973206e6f74206f60008201527f776e6572206e6f7220617070726f766564000000000000000000000000000000602082015250565b7f455243373231456e756d657261626c653a20676c6f62616c20696e646578206f60008201527f7574206f6620626f756e64730000000000000000000000000000000000000000602082015250565b613122816129c9565b811461312d57600080fd5b50565b613139816129db565b811461314457600080fd5b50565b613150816129e7565b811461315b57600080fd5b50565b61316781612a33565b811461317257600080fd5b5056fea26469706673582212205ef9863f62746090fcaf30d5a9453a42f3bbfb15bf35b98bdeeda359b7109fa464736f6c63430008070033",
  "immutableReferences": {},
  "source": "pragma solidity ^0.8.0;\n\n\n// SPDX-License-Identifier: MIT\n\nimport \"./ERC721Full.sol\";\n\ncontract Color is ERC721Enumerable {\n\tstring[] public colors;\n\tmapping(string => bool) _colorExists;\n\n\tconstructor() ERC721(\"Color\", \"COLOR\") {\n\n\t}\n\n\tfunction mint(string  memory _color) public {\n\n\t\trequire(!_colorExists[_color]);\n\t\tcolors.push(_color);\n\t\tuint _id = colors.length;\n\t\t_mint(msg.sender, _id);\n\t\t_colorExists[_color] = true;\n\n\t}\n\n    function totalSupply() public view override returns (uint256) {\n\n      return colors.length;\n    }\n\n \n\t\n}",
  "sourcePath": "/Users/devinpassage/Code/starter_kit/src/contracts/Color.sol",
  "compiler": {
    "name": "solc",
    "version": "0.8.7+commit.e28d00a7.Emscripten.clang"
  },
  "schemaVersion": "3.4.3",
  "updatedAt": "2021-09-08T23:58:04.951Z",
  "networkType": "ethereum",
  "devdoc": {
    "kind": "dev",
    "methods": {
      "approve(address,uint256)": {
        "details": "See {IERC721-approve}."
      },
      "balanceOf(address)": {
        "details": "See {IERC721-balanceOf}."
      },
      "getApproved(uint256)": {
        "details": "See {IERC721-getApproved}."
      },
      "isApprovedForAll(address,address)": {
        "details": "See {IERC721-isApprovedForAll}."
      },
      "name()": {
        "details": "See {IERC721Metadata-name}."
      },
      "ownerOf(uint256)": {
        "details": "See {IERC721-ownerOf}."
      },
      "safeTransferFrom(address,address,uint256)": {
        "details": "See {IERC721-safeTransferFrom}."
      },
      "safeTransferFrom(address,address,uint256,bytes)": {
        "details": "See {IERC721-safeTransferFrom}."
      },
      "setApprovalForAll(address,bool)": {
        "details": "See {IERC721-setApprovalForAll}."
      },
      "supportsInterface(bytes4)": {
        "details": "See {IERC165-supportsInterface}."
      },
      "symbol()": {
        "details": "See {IERC721Metadata-symbol}."
      },
      "tokenByIndex(uint256)": {
        "details": "See {IERC721Enumerable-tokenByIndex}."
      },
      "tokenOfOwnerByIndex(address,uint256)": {
        "details": "See {IERC721Enumerable-tokenOfOwnerByIndex}."
      },
      "tokenURI(uint256)": {
        "details": "See {IERC721Metadata-tokenURI}."
      },
      "totalSupply()": {
        "details": "See {IERC721Enumerable-totalSupply}."
      },
      "transferFrom(address,address,uint256)": {
        "details": "See {IERC721-transferFrom}."
      }
    },
    "version": 1
  },
  "userdoc": {
    "kind": "user",
    "methods": {},
    "version": 1
  }
}